:100000000C94A4020C94DC020C94DC020C94DC0230
:100010000C94DC020C94DC020C94DC020C94DC02E8
:100020000C94DC020C94DC020C94081C0C941F2031
:100030000C940B2A0C94DC020C94DC020C94DC0271
:100040000C94DC020C94DC020C94DC020C94DC02B8
:100050000C94DC020C94E11C0C94DC020C94DC0289
:100060000C94DC020C94DC020C94DC020C94DC0298
:100070000C94DC020C94DC020C94DC020C94DC0288
:100080000C94DC020C94DC020C94DC020C94DC0278
:100090000C94DC020C94DC020C94DC020C94DC0268
:1000A0000C94DC020C94DC020C94DC0200100020A6
:1000B0000011012100120222001303230014042462
:1000C0000015052500160626001707270018082822
:1000D00000190929001A0A2A001B0B2B0040305076
:1000E00000413151004232520043335300443454F2
:1000F00000453555004636560047375700483858B2
:1001000000493959004A3A5A004B3B5B0070608005
:100110000071618100726282007363830074648481
:100120000075658500766686007767870078688841
:1001300000796989007A6A8A007B6B8B00A090B095
:1001400000A191B100A292B200A393B300A494B411
:1001500000A595B500A797B700A898B800A999B9C8
:1001600000AA9ABA00AB9BBB000000000000000090
:10017000000000000000000000000000000000007F
:100180002B4314001A000900130005000D000F0096
:1001900018001C003300310029000400150016006F
:1001A00017000A001000110008000C0012003400B3
:1001B00064421D001B000600070019000E000B0022
:1001C0003600370038002602E000E300E20001526A
:1001D000E1002C0000002A0028004C002D0027021E
:1001E00035021E021F0220022102220223022402E3
:1001F00025022602270267004C003A003B003C0023
:100200003D003E003F003700240025002600380056
:100210002A004000410042004300440045002E00F7
:1002200021002200230057005800E000E2000052A5
:10023000E1002C00000027001E001F0020002D0000
:100240002B00520152004A014B00420045004A0077
:10025000CD004D00460053005001500051004F00AA
:100260004F014B01BD00CF00CE00D00049002F0050
:100270006442827451014D014E004E01BE00AC003B
:10028000AB00AD00AE003000E000E300E200015240
:10029000E1002C000000D100D200AA00A900A800B3
:1002A0002B43007C027C20782178237824782578E1
:1002B0002678277828784C00010001000100010011
:1002C0000100010001000100010001000100010026
:1002D0000100010001000100010001000100010016
:1002E0000100010001000100010001000100010006
:1002F00001000100000001000100010001000100F7
:1003000000010101010101010101020202020202D8
:1003100002020203030303030303030404040404AB
:100320000404050505050506060606060707070772
:100330000708080808090909090A0A0A0B0B0B0C27
:100340000C0C0D0D0D0E0E0E0F0F0F1010111111C4
:100350001212131314141515161617171818191945
:100360001A1A1B1B1C1D1D1E1E1F202021222223AA
:100370002424252626272829292A2B2C2D2D2E2FEB
:1003800030313232333435363738393A3B3C3D3E02
:100390003F404142434445464748494A4C4D4E4FF1
:1003A00050515354555658595A5B5D5E5F616264B3
:1003B000656668696B6C6D6F7072737577787A7B40
:1003C0007D7E8082838587888A8C8E8F9193959697
:1003D000989A9C9EA0A2A3A5A7A9ABADAFB1B3B5B7
:1003E000B7BABCBEC0C2C4C6C9CBCDCFD1D4D6D893
:1003F000DBDDDFE2E4E7E9EBEEF0F3F5F8FAFDFF31
:1004000005010902A10185020901A10005091901DF
:10041000290815002501950875018102050109309B
:1004200009311581257F95027508810609381581E6
:10043000257F950175088106050C0A38021581256E
:100440007F950175088106C0C005010980A101855D
:100450000319012AB700150126B70095017510810F
:1004600000C0050C0901A101850419012AA002158B
:100470000126A002950175108100C005010906A1A1
:1004800001050719E029E715002501950875018187
:10049000029501750881010507190029FF1500263D
:1004A000FF009506750881000508190129059505C5
:1004B00075019102950175039101C009023B00028B
:1004C0000100A0FA09040000010301010009211143
:1004D0000100012240000705810308000109040111
:1004E000000103000000092111010001227B000727
:1004F0000582032000011201000200000008504B99
:100500003034020001020001220342004D00340099
:100510003000200048006F00740073007700610015
:1005200070002000520047004200000016034B00FC
:100530005000520065007000750062006C00690098
:10054000630000000403090411241FBECFEFDAE0AA
:10055000DEBFCDBF04B603FE18C080911305909195
:100560001405A0911505B09116058730904BA74052
:10057000B04B59F410921305109214051092150502
:1005800010921605E0E0F8E3099512E0A0E0B1E072
:10059000E0E7F0E602C005900D92A033B107D9F76D
:1005A00025E0A0E3B2E001C01D92A331B207E1F75C
:1005B0000E94322A0C94B72F0C940000E8EDF0E072
:1005C00080818E7F80831092E2001092DA00109278
:1005D000E100A0EEB0E08C9181608C9380818F77F8
:1005E000808319BCA7EDB0E08C918E7F8C938081C5
:1005F0008F7E80831092B20408952091E4003091A0
:10060000E50095E6A9012091EC00822F817020FF82
:1006100006C08091E80080FF06C080E00895209128
:10062000E80022FD1AC08091BF04882389F085303C
:1006300089F08091EB0085FD0FC02091E40030919E
:10064000E50042175307F9F29150E1F684E008956E
:1006500082E0089583E0089581E008958091C104C7
:1006600087FF13C08091E80082FF06C08091E800F8
:100670008B778093E80004C08091BF048111F2CF92
:1006800008958091BF048823D9F38091E80080FF0A
:10069000F8CF8091E8008E77ECCF982F9093E90007
:1006A000242F762F50E0891731F07091EC002091C3
:1006B000ED005091F00021FD07C09F5F973071F76A
:1006C0008093E90081E008953091EB003E7F309304
:1006D000EB003091ED003D7F3093ED003091EB0069
:1006E00031603093EB007093EC002093ED00509359
:1006F000F0002091EE0027FDE0CF80E00895B0E00B
:10070000A0E0E5E8F3E00C94BE2EC8EDD0E08881CF
:100710008F7E8883E7EDF0E080818160808384E0D4
:1007200082BF81E08093B20488818E7F888302EE4D
:1007300010E0F80110821092DA0081EEC82ED12C60
:10074000F601108288818F7788838881806888830A
:1007500088818F7D888319BC1092BF041092C004D9
:100760001092BE041092BD0490EEE92EF12CF70118
:1007700080818B7F808388818160888342E060E014
:1007800080E00E944D03F60180818E7F8083F80116
:10079000808181608083808188608083F70180818F
:1007A0008E7F8083888180618883CDB7DEB7E8E063
:1007B0000C94DA2EFC018091C7049091C80486172E
:1007C0009707A0F06115710529F49091E8009E77D4
:1007D0009093E80090E06115710551F4911108C003
:1007E0008091E80082FF34C080E00895BC01F2CF20
:1007F0008091BF048823C1F18530C1F18091E80068
:1008000083FD30C08091E80082FDEACF8091E8004E
:1008100080FFE1CF8091F3002091F200382F611525
:10082000710519F02830310558F091E02830310574
:1008300009F090E02091E8002E772093E800CBCFDC
:1008400081918093F100615071092F5F3F4FE7CF95
:100850008091BF04882341F0853041F08091E80009
:1008600083FFBECF81E0089582E0089583E008957C
:100870008091B4040895A3E0B0E0E1E4F4E00C94C6
:10088000C42E2091AB043091AC0428173907A1F095
:100890009093AC048093AB04E091A904F091AA0476
:1008A000309751F024E029839B838A830680F78167
:1008B000E02DCE01019609952396E2E00C94E02EFE
:1008C000A3E0B0E0E6E6F4E00C94C42E2091A70487
:1008D0003091A80428173907A1F09093A8048093B9
:1008E000A704E091A904F091AA04309751F023E005
:1008F00029839B838A830680F781E02DCE010196B0
:1009000009952396E2E00C94E02EE091A904F09181
:10091000AA04309729F00190F081E02D09950895FF
:1009200080E00895FA01811101C0FB010995089545
:10093000EDECF4E0248130E1231B08F420E0248373
:100940008091A60481608093A6040895EDECF4E004
:10095000248130E1230F08F42FEF24838091A60433
:1009600081608093A60408959091CD04937071F0F6
:100970008093CE046093CF04493C08F048EC409348
:10098000D0048091A604822B8093A6040895EDECF8
:10099000F4E0438120E1421B08F440E0818121E042
:1009A000628190E00E94B4040895EDECF4E043818C
:1009B00020E1420F08F44FEF818121E0628190E055
:1009C0000E94B4040895EDECF4E0628120E1621B22
:1009D00008F460E0818121E0438190E00E94B4044A
:1009E0000895EDECF4E0628120E1620F08F46FEF0E
:1009F000818121E0438190E00E94B4040895EDECF0
:100A0000F4E0818121E0438162818850990B0E944A
:100A1000B4040895EDECF4E0818190E021E043819D
:100A2000628108960E94B40408959091CD04937059
:100A300061F081110BC094609093CD0410920C0171
:100A40008091A604862B8093A60408958B3210F023
:100A5000986AF2CF880F880F982BEECF8091CD0443
:100A600086958695815009F48AE261E00E94150519
:100A700008958091CD04869586958F5F8B3208F01E
:100A800081E061E00E9415050895EF92FF920F93B7
:100A90009701201B31092F3F310519F010F02FEF7E
:100AA00030E02095382F320F08F43FEF832F0F915D
:100AB000FF90EF900895EF92FF920F939701201B04
:100AC00031092F3F310519F010F02FEF30E0322FB0
:100AD0003095482F430F08F44FEF842F620F0F918A
:100AE000FF90EF900895EF92FF920F93972F0934A4
:100AF00038F4B701601B71096F3F710519F010F0F0
:100B00006FEF70E0485F5F4F4131510540F0A90140
:100B1000485F5F4F4131510510F06FEF70E0609515
:100B2000482F460F08F44FEF842F37FF02C02D5F88
:100B30003F4F35952795359527956091CE04620FE7
:100B4000792F0F91FF90EF900895EF92FF920F93FE
:100B50001F930E0D1F2D111DF90137FF03C0F195D5
:100B6000E195F10924E0EE0FFF1F2A95E1F7EF3F31
:100B7000F10519F014F0EFEFF0E09A0157FF03C010
:100B800031952195310994E0220F331F9A95E1F7B1
:100B90002E173F070CF4F901E00FF11FEF3FF105AD
:100BA00019F010F0EFEFF0E0E095282F3E2F230F23
:100BB00008F42FEF822F1F910F91FF90EF9008956F
:100BC000EF92FF920F93970195E0099F200D311D41
:100BD00011242F3F310519F010F02FEF30E0209550
:100BE000382F320F08F43FEF832F0F91FF90EF90D3
:100BF000089522E8241B08F420E0620F0895409530
:100C0000282F429F412D1124842F0895E42FF0E0D6
:100C1000EE0FFF1FEF56FE4F9081921B97FD9195AF
:100C2000292F38E1239F212D1124620F08950F935E
:100C30001F9310E0F801EE0FFF1FEF56FE4F90815B
:100C4000905797FD9195000F111FF801EF59FE4F36
:100C500001A90052110B2003F001219FF00D112476
:100C600008E310E0091B110997FD1395400390015B
:100C7000419F300D1124E20FF31F9F01220F331FFC
:100C80002E0F3F1F37FF02C021583F4F220F232F47
:100C9000221F330B620F1F910F9108950F931F9323
:100CA000522F10E0F801EE0FFF1FEF59FE4FA1A9E0
:100CB000A052BB0B9D015203F001539FF00D112474
:100CC000000F111FD801AF56BE4F0C910057110BEA
:100CD00040039001419F300D11242E0F3F1F37FF1D
:100CE00002C0215C3F4F96E0359527959A95E1F734
:100CF000620F1F910F9108950F931F93522F10E0D1
:100D0000F801EE0FFF1FEF59FE4FA1A9A052BB0B38
:100D10009D015203F001539FF00D1124000F111F8C
:100D2000D801AF56BE4F0C910057110B40039001F4
:100D3000419F300D11242E0F3F1F37FF02C0215855
:100D40003F4F220F232F221F330B620F1F910F9152
:100D50000895EF920F93972F23E0029FB001112483
:100D6000759567956E0D792F0F91EF900895322F3D
:100D700050E0FA01EE0FFF1FEF59FE4F91A990527C
:100D800097FD9195440F551FFA01EF56FE4F2081B4
:100D9000231B330B290F311D97FD3A95620F0895E0
:100DA000E42FF0E0EE0FFF1FEF59FE4F61A9621B29
:100DB0000895E42FF0E0EE0FFF1FEF56FE4F608125
:100DC000621B0895622F0895E42FF0E0EE0FFF1FDD
:100DD000EF56FE4F408134EE439F412D1124E82F02
:100DE000F0E050E0445E5F4FDA01A21BB1099D01C3
:100DF000B7FF03C031952195310993E0220F331FCE
:100E00009A95E1F7AF01421B530B9A0157FD20E081
:100E1000582F259F212D1124822F0895E42FF0E0D3
:100E2000EE0FFF1FEF56FE4F408134EE439F412DE2
:100E30001124E72FF0E050E0445E5F4FDA01A21B7F
:100E4000B1099D01B7FF03C031952195310993E0A8
:100E5000220F331F9A95E1F7AF01421B530B9A0102
:100E600057FD20E0279F212D1124722F08950E9405
:100E7000D31B08950E94F61B0895FC019B01009767
:100E800029F480E077FF2BC080E80895AC0197FF3C
:100E900004C044275527481B590BB901640F751F1F
:100EA00037FD10C0241B350BC901A5E0880F991F21
:100EB000AA95E1F70E94EB2E80E2861BF7FF0FC098
:100EC00081950895CB0165E0880F991F6A95E1F738
:100ED000BA01621B730B0E94EB2E80E6EECF0895E1
:100EE000EF920F93CF93DF93D72FC82FC9010E191D
:100EF000BA010E943D07602F681B7D2F8C2FDF9168
:100F0000CF910F91EF9008950F93CF93DF93D72F49
:100F1000C82FC901BA010E943D07682F600F7D2FBD
:100F20008C2FDF91CF910F910895EF920F931F9324
:100F3000CF93DF93D62FC72F182FC9010E19010F9A
:100F4000BA010E943D07081B202F219F212D11244B
:100F5000822F6D2F7C2FDF91CF911F910F91EF90FA
:100F60000895EF920F931F93CF93DF93D62F172FF0
:100F7000C82FC9010E19070FBA010E943D07702F33
:100F8000781B719F712D11246D2F8C2FDF91CF91C4
:100F90001F910F91EF9008950F931F93CF93DF93BD
:100FA000D62FC72F182FC901212F201B022FBA01BE
:100FB0000E943D07982F990F990F891B800F282FAA
:100FC000219F212D1124822F6D2F7C2FDF91CF9116
:100FD0001F910F9108950F931F93CF93DF93D62FF7
:100FE000172FC82FC901272F201B022FBA010E94DB
:100FF0003D07982F990F990F782F791B700F719FCC
:10100000712D11246D2F8C2FDF91CF911F910F9196
:101010000895E82F86FDE0952E2F2F7086FD2F5F17
:10102000E695E695E695E670F0E0E75AFE4F918189
:10103000929F902D212D112492959F702295207FB3
:10104000922B2081920F87FD919580E8890F08955A
:101050000F931F93CF93DF938B01D82FC42F822F31
:101060000E940908EC2FF0E0EE0FFF1FEF56FE4F35
:1010700090819058890F87FD8195880F682F2CE00B
:10108000629F612D1124600F712F8D2FDF91CF9101
:101090001F910F910895409108015091090125E099
:1010A00038E0429FC001439F900D529F900D112444
:1010B000875E994C9093090180930801890F0895E8
:1010C000AC018230910508F408959FEF413E8EE116
:1010D000580740F49A0195E0369527959A95E1F7DF
:1010E00098E0920F61E0E62FE90FFF27FF1F9F01B5
:1010F00035952795822F229FF001239FF00DF00D4B
:1011000011244E175F0738F49FEF920F961758F788
:101110008FEF860F08952F3FE9F361E0620FF6CF5E
:101120000F93CF93DF93D72FC82F47FD419588E3C7
:1011300090E0841B910947FD9395889FB001899F9A
:10114000700D700D1124229FC001239F900D900DF2
:101150001124860F971F0E946008982F990F890FFE
:10116000682F600F7D2F8C2FDF91CF910F91089505
:1011700030E020E0869F212D969F200D311D112407
:10118000C90108952091D10430E1230F08F42FEF15
:1011900060E1822F90E00E94B808BC0188EB9BE0E0
:1011A0000E94A02E90E080E00895AF92BF92CF926F
:1011B000DF92FF920F931F93CF93DF93362F472F2A
:1011C000E82FF0E0E050FD4F71110FC0E4918E2F39
:1011D0002E2F6E2F722FDF91CF911F910F91FF90C5
:1011E000DF90CF90BF90AF900895C72FD0E02491AB
:1011F000F22E022F10E056E0659FC0011124EFEFA0
:10120000F0E0BF010E94A02E832F90E0880F991F6D
:1012100035E5369FD001379FB00D11248A1B9B0BFB
:10122000982F990F980F6F01CC1ADD0AC09ED0013C
:10123000C19EB00DD09EB00D11248B2F499FA001EF
:101240001124452F55276F01C41AD50AC09EA0014D
:10125000C19E500DD09E500D11245F01A91AB108F6
:10126000AC9E6001AD9ED00CBC9ED00C1124CD2C48
:10127000DD24EC19FD09E09FE001E19FD00DF09F16
:10128000D00D1124ED2F62307105A1F050F46115DD
:10129000710509F49ECF6130710581F0EB2F852F28
:1012A00098CF6430710569F080F06630710509F4FB
:1012B00090CFF4CFE22F2B2F8D2F8BCFE22F252F26
:1012C00088CFEB2F822F2D2F84CF2B2F8F2DE52F23
:1012D00080CFB0E0A0E0EFE6F9E00C94BF2E8C01E7
:1012E000FC01E550FE4F8081682349F1D090CF0486
:1012F000D091D004C091CE04EC2EF12C0E944B086A
:10130000282FC7018C549F4F68E671E00E94EB2E96
:101310008E199F0997FD03969595879595958795C5
:1013200023706C2F289F600D11247D2D8D2F0E941E
:10133000D508462F282F672FC8010E943A07CDB73E
:10134000DEB7E7E00C94DB2E2F923F925F926F9214
:101350007F928F929F92AF92BF92CF92DF92EF9245
:10136000FF920F931F93CF93DF93CDB7DEB72A97EA
:101370000FB6F894DEBF0FBECDBF8B837E836D8327
:1013800020910E018BE0289F802D11248F83855F93
:1013900089838A83863310F035E33A838091D304BE
:1013A0008C83FF81EF2FF0E0FA87E987CF01880F68
:1013B000991F9C012F593E4F69013B81832F90E07B
:1013C000FC013196F887EF838A8199859817E8F0B8
:1013D00081E0E981E53308F080E02A960FB6F894C1
:1013E000DEBF0FBECDBFDF91CF911F910F91FF9058
:1013F000EF90DF90CF90BF90AF909F908F907F90B5
:101400006F905F903F902F900895E985FA85E550A1
:10141000FE4F808190910F018923F1F02090CE043E
:101420003090CF042F8138852D523B4F39015B809E
:1014300010E0FC815F16D0F02091D004129F112D96
:101440001124B101812F0E94D508462F282F672F24
:1014500089859A850E943A0729853A852F5F3F4FF3
:101460003A87298732E0C30ED11CAECFF3018191B8
:101470003F01F601A0A8A81ABB0881A8F301878143
:10148000881A9908AA9C9001AB9C300D300D11244C
:10149000889CC001899C900D900D1124820F931F90
:1014A0000E946008082F6091D10421E0620F08F4C7
:1014B0006FEFF301EE0FFF1FE35DF440858996891E
:1014C0000E94B8087C019401A501B101812FED8132
:1014D000FE8109951B015394182FABCFB0E0A0E01B
:1014E000E4E7FAE00C94BE2E8C01C0910E018BE073
:1014F000C89FC02D11242BE0D22EDC0ECD2C25E36D
:101500002D1510F495E3C92E2091D10431E0230F5D
:1015100008F42FEF30E050E040E06FEF7FEF80E025
:1015200090E00E94FF2E7901D0E02C2FCC1550F0D6
:1015300081E0F4E3FD1508F480E0CDB7DEB7E8E024
:101540000C94DA2EFE01E550FE4F808190910F0140
:10155000892311F14091D3044150042E000C550B06
:1015600047FF1CC0C7016091D10421E0620F08F45D
:101570006FEF0E94B808AC016091CE047091CF0467
:101580008091D004F80109950E94D508462F282F94
:10159000672FCE010E943A072196C7CFFA01ED527C
:1015A000FB4F818982130AC0FA01EE0FFF1FED5233
:1015B000FB4F818D928D8E159F05A8F241505109E8
:1015C000CFCFB0E0A0E0E7EEFAE00C94BF2E7C01B4
:1015D000C0910E018BE0C89FC02D11241BE01C0F91
:1015E000012F163308F005E36091D10466956695E6
:1015F00021E0620F08F46FEF8091C9049091CA0452
:101600000E94B808D82ED0E0C01748F081E015330A
:1016100008F080E0CDB7DEB7E7E00C94DB2EFE01EA
:10162000E550FE4F808190910F01892391F06091E8
:10163000CE047091CF048091D0042D2D4C2FF70152
:1016400009950E94D508462F282F672FCE010E94AA
:101650003A072196D9CFB0E0A0E0E1E3FBE00C949B
:10166000BB2E6C01C0910E018BE0C89FC02D1124D0
:101670001BE01C0FB12E163310F035E3B32E609132
:10168000D104669566958091C9049091CA040E9420
:10169000B808F82E80E48F0D0E94090890E8A92E62
:1016A000A80E8F2D0E94090820E8922E980ED0E0F7
:1016B000CB1548F081E0153308F080E0CDB7DEB7F8
:1016C000EBE00C94D72EFE01E550FE4F8081909107
:1016D0000F018923A1F06091CE047091CF04809115
:1016E000D004EF2C0C2F292D4A2DF60109950E94CC
:1016F000D508462F282F672FCE010E943A07219642
:10170000D7CFB0E0A0E0E7E8FBE00C94B72E3C01B7
:10171000C0910E018BE0C89FC02D11241BE01C0F4F
:10172000F12E163310F035E3F32E6091D104669557
:101730008091C9049091CA040E94B808582ED0E044
:10174000CE01880F991F9C012F593E4F6901CF157B
:1017500048F081E0153308F080E0CDB7DEB7EFE068
:101760000C94D32EFE01E550FE4F808190910F0125
:10177000892379F1F60180A9282F2057330B5901CD
:1017800081A9E82FE052FF0B4F01AA9C9001AB9C6E
:10179000300D300D1124EE9FC001EF9F900D900D84
:1017A0001124820F931F0E946008082F6091CE04BD
:1017B0007091CF048091D004E52C9401A501F30130
:1017C00009950E94D508462F282F672FCE010E9429
:1017D0003A07F2E0CF0ED11C2196B9CFB0E0A0E0DD
:1017E000E4EFFBE00C94BC2E6C01C0910E018BE089
:1017F000C89FC02D11241BE01C0FB12E163310F012
:1018000035E3B32E6091D10466958091C90490911F
:10181000CA040E94B808A82ED0E0CE01880F991FF4
:101820009C012F593E4F7901CB1548F081E01533CB
:1018300008F080E0CDB7DEB7EAE00C94D82EFE01C8
:10184000E550FE4F808190910F018923C1F0F7018F
:1018500021A92052330B40A94057550B6091CE046B
:101860007091CF048091D0040A2DF60109950E9451
:10187000D508462F282F672FCE010E943A07F2E0A5
:10188000EF0EF11C2196D0CF1F93CF93DF93EC0185
:10189000FC01E550FE4F80816823B1F00E944B08A7
:1018A000182F0E944B0820E8829FC00111247FE777
:1018B000790F612F8091D0040E94D508462F282FE0
:1018C000672FCE010E943A07DF91CF911F910895B3
:1018D0008091A60380FD16C081FD16C082FD16C052
:1018E0008091A5038823A1F0883280F428E0829FAC
:1018F000C001112468E270E00E94EB2E862F672B56
:1019000039F0089582E0089584E0089588E008950C
:1019100081E008958091A60380FD14C081FD14C06C
:1019200082FD16C08091A403882381F08E3180F45B
:1019300020E5829FC00111246EE170E00E94EB2E31
:10194000862F089584E1089588E2089588E0089537
:1019500080E5089580E00895F894E82FE295EF700F
:10196000F0E031A1282F2F7081E090E001C0880FB6
:101970002A95EAF7982F9095932391A392A1892B0A
:1019800082A37894089590918E0392FF06C0282F29
:1019900028712830F9F4877F846093FF06C0282FD0
:1019A00028712831F1F4877E846120918F0320FF14
:1019B00006C0382F38713830D9F4877F816021FF15
:1019C00006C0282F28712831D1F4877E816194FDCB
:1019D000877E0895282F24712430F9F68B7F886044
:1019E000DCCF282F2471243101F78B7E8861DDCF75
:1019F000382F3171313019F78E7F8860E0CF282F72
:101A00002171213121F78E7E8861E1CF972F7430CB
:101A1000B8F46C30A8F4843098F470E02CE0929F15
:101A2000600D711D1124FB0190E3899FE00DF11DF4
:101A30001124EE0FFF1FE058FE4F859194910895F9
:101A400080E090E00895CF93DF93EC018238910518
:101A5000B9F108F041C08133910509F49FC050F5F8
:101A60008932910509F48FC08A9709F49EC0C11587
:101A700020E5D20708F0BDC0C11530E4D30708F057
:101A80000AC1C03ED10508F0A5C0CD3CD10508F083
:101A900000C1C83AD10508F08FC0C53AD10508F099
:101AA000F0C0C130D10539F1209729F1C430D105FA
:101AB00010F546C08533910509F460C0C997B9F6A1
:101AC00080918E03837009F044C180918F0383FF5E
:101AD00012C0C9E2D0E00FC0833E9105A1F178F4B5
:101AE000803E910509F1823E910509F0C0CF8091B9
:101AF0008E0382FD21C0CE01DF91CF910895863EF5
:101B0000910561F1873E910571F1843E910509F0DF
:101B1000AECF80918F0381FFEECF80918E03C7EE11
:101B2000D0E084FD0DC0E7CF80918E0380FD33C0EF
:101B300090918F0390FFDFCFC3EED0E084FFDBCF27
:101B4000D0E0C0E0D8CF80918E0382FDFFC090919D
:101B50008F0390FDFEC084FFCECFF2CF80918E0325
:101B600083FDDDCFC8CF80918E0383FDF5C09091BA
:101B70008F0391FFF0CFC4EED0E0BDCF80918E03F4
:101B800085FFB9CFA6CF80918E0385FDE8C08091F7
:101B90008F0383FFB0CFC9E3D0E0ADCF80918E0338
:101BA00086FFA9CFCAE2D0E0A6CF80918E0386FF40
:101BB000A2CFC1E3D0E09FCFC13CD10508F6C85AFF
:101BC000D0E0CC0FDD1FC95EDE4F0990D881C02D5B
:101BD000D46491CFC11540E2D40708F0AAC0C11562
:101BE00081E0D80708F087CFC83ED10508F483CF3D
:101BF000A7CFC03622E5D20718F5C03432E5D307A7
:101C000008F053C0C03242E5D40708F047C0C11500
:101C100082E5D80708F47FC02C2F2695269540E250
:101C2000249F900111248C2F8370C1E0D0E002C06A
:101C3000CC0FDD1F8A95E2F7C22BD32BDD685BCF7B
:101C4000C03A22E5D20760F4C03832E5D30708F481
:101C500041C0CF71D0E0DC2FCC27C46FD06A4BCF0E
:101C6000C03C42E5D40708F44AC0C03E82E5D8072C
:101C700008F066CFDC2FCC27CC27DF71C06FD06A8D
:101C80003ACFC55AD0E0CC5EDE4FC881D0E0D064F8
:101C900032CFD06530CFDF70D06A2DCFCF71D0E09A
:101CA000DC2FCC27C16FD06A26CF2C2F2695269506
:101CB000277080E2289F900111248C2F8370C1E04F
:101CC000D0E002C0CC0FDD1F8A95E2F7C22BD32BE8
:101CD000DC6811CF2C2F26952695277040E2249F93
:101CE000900111248C2F8370C1E0D0E002C0CC0F92
:101CF000DD1F8A95E2F7C22BD32BDA68FCCE8C2F3E
:101D00008F710E94C30CC82FD0E0DC2FCC27CC27CA
:101D1000DF71D062F0CE8C2F8F710E94C30C35E042
:101D2000D695C7953A95E1F7CF709C2FEC01D06915
:101D3000E2CE8D2F8F710E94C30C90E0982F8827E0
:101D400088279F719C012C2BE901E3CFC2EED0E0E4
:101D5000D2CEC0EED0E0CFCEC6EED0E0CCCEC5E342
:101D6000D0E0C9CE80918203811110928203089540
:101D70008095909181039823909381030895E4E3E3
:101D8000F2E09191891303C0DF0111971C9292E058
:101D9000EA33F907B1F70895A4E3B2E0EFEF90E07A
:101DA0002D91821751F0EF3F19F4211101C0E92F55
:101DB0009F5F9630A9F7EF3F09F408950E2E000CAF
:101DC000FF0BEE5CFD4F8283089520917603909186
:101DD000450356E0291302C080E0089530E0529F89
:101DE000F001539FF00D1124EA5BFC4F71817613D3
:101DF00006C07081781303C07281741304C02F5F12
:101E00003F4F2770E7CF81E008958091760390914E
:101E10004503981301C008958F5F8770FACFB0E033
:101E2000A0E0E5E1FFE00C94BD2E7C010091A3044D
:101E30001091A4048091A1049091A204082B192B65
:101E4000CFE0D0E0CC24C394D12CBC2EC6010C2E04
:101E500002C0880F991F0A94E2F780239123892BEF
:101E600049F4219790F7B12C8B2DCDB7DEB7E9E07F
:101E70000C94D92EB7018C2F0E94060D0E94230DC1
:101E8000019779F3F1CFCF93DF93EC010E940F0F0D
:101E9000BE010E94060D0E94230DDF91CF9108958F
:101EA000943078F58C3068F5E82FF0E08CE0989F5E
:101EB000E00DF11D11249E2F977083E0F695E795B4
:101EC0008A95E1F7EE0FFF1FEE0FFF1FE95DFC4F54
:101ED00050E040E080E0219130E0092E02C03695CC
:101EE00027950A94E2F721703327042E01C0220FB0
:101EF0000A94EAF7822B4F5F5F4F4430510559F740
:101F0000089580E00895943098F58C3088F5E82F96
:101F1000F0E08CE0989FE00DF11D11248E2F87706A
:101F200041E001C0440F8A95EAF783E0F695E79512
:101F30008A95E1F7EE0FFF1FEE0FFF1FE95DFC4FE3
:101F400030E020E070E05191DF011197CB01022ECB
:101F500002C0969587950A94E2F78170819585274E
:101F6000842385278C932F5F3F4F2430310559F709
:101F700008959093A4048093A304089521E030E091
:101F800002C0220F331F8A95E2F720953095809189
:101F9000A3049091A404822393230E94B90F08956F
:101FA000909177038095892380937703282F27705A
:101FB00091F4282F082E000C330B9217130659F0BA
:101FC00090918F0392FF07C08595859585950E9416
:101FD000BE0F10927703089521E030E002C0220F77
:101FE000331F8A95E2F78091A3049091A404822B79
:101FF000932B0E94B90F08959093A2048093A1049B
:102000000895FC0183819481892B29F0808191813D
:1020100089238F3F51F480E00895843FE1F717C092
:10202000883EA8F0813FB9F712C0808191810E945B
:10203000430F92959F70963099F358F4925F9F707A
:10204000923048F7803F19F040F7883E20F781E052
:1020500008959A5FF4CF8093FF046093000524E60F
:1020600030E042E050E06FEF74E080EA0E947F2EA3
:1020700021E0892B09F020E0822F08950F931F9310
:10208000CF93DF938B01EA019091BF04943061F507
:102090008093E9008FEF9091E800815095FD06C094
:1020A00095ED9A95F1F700008111F5CF8091E80048
:1020B00085FF1AC00E94FD02811111C08091E800C5
:1020C00085FD06C08091E8008E778093E800F2CF0E
:1020D000F80181918F018093F100219779F7809128
:1020E000E8008E778093E800DF91CF911F910F91E8
:1020F000089543E050E0BC0182E00E943E10089544
:1021000046E050E0BC0182E00E943E100895CF936B
:10211000DF93EC0148E050E0BC0181E00E943E10FA
:1021200088E0FE01A5EBB4E001900D928A95E1F7FD
:10213000DF91CF91089581E08093E00080E2809369
:10214000D8001092C9008FE19EE40197F1F700C01A
:10215000000087E090EBDC01809313059093140559
:10216000A0931505B093160588E19CE00FB6F8948E
:10217000A895809360000FBE90936000FFCFCF932F
:10218000DF9380911303882339F165EC8EEF0E9471
:102190002B1061E08DEF0E942B10D0E0C0E0C093C7
:1021A000FF04DE01AD5ABD4FE0E0F5E08D91819373
:1021B00085E0E031F807D1F724E630E041E150E076
:1021C0006FEF74E080EA0E947F2E892B09F02FC008
:1021D0006096C03CD10519F710921303209A35B1CF
:1021E0003E7F25B121604FB7F89484E193E0FC0174
:1021F0005191CF0168E025B9000000C057FF35B903
:10220000550F000000C000C000C035B900C06A957D
:1022100091F7F3E086329F0751F74FBF8FE594E0C7
:102220000197F1F700C00000DF91CF91089581E0A0
:1022300080935202D1CFEDECF4E085E3808380916E
:10224000110190911201A091130181839283A383C4
:102250008FE784838FEF858346E050E06CE170E088
:10226000CF010E94832F1092A6040895B0E0A0E051
:10227000ECE3F1E10C94B62E182F80910B01811341
:1022800023C09091CD04937020910A0130E081E049
:102290009217130609F480E08170809310018091F9
:1022A000D20490910F01981739F080930F0140E00C
:1022B00060E080E00E9437071B3260F4E12FF0E01D
:1022C000E754F04D0C941E2F81E0E6CF8091100171
:1022D000811102C0C0E0D7C140E060E080E00E9410
:1022E0003707F8CFC0910E018BE0C89FC02D112495
:1022F0000BE00C0FF02E063310F025E3F22E609168
:10230000CE047091CF048091D0040E94D508E62EAF
:10231000D72EC82ED0E0CF1528F0C1E0053308F441
:10232000B2C1D8CFFE01E550FE4F808190910F01E0
:10233000892331F02C2D4E2D6D2DCE010E943A07B0
:102340002196E9CFC0910E018BE0C89FC02D1124CA
:102350000BE00C0FF02E063310F095E3F92ED09021
:10236000CF04E090D004D091CE046D2F7D2D8E2D22
:102370000E94D508C62EB72EA82E6091D1046D0FED
:102380007D2D8E2D0E94D508E62ED72E982ED0E0DA
:10239000CF1518F6FE01E550FE4F908180910F0198
:1023A000892359F0292D4E2D6D2D90FD03C02A2D26
:1023B0004C2D6B2DCE010E943A072196E9CFC0919A
:1023C0000E018BE0C89FC02D11240BE00C0FE02EF6
:1023D000063310F085E3E82ED090CF04C090D004EF
:1023E0002091D104D0E4FD2E3F2D329F312D1124B8
:1023F000F32ED0E0CE1508F090CFFE01E550FE4F51
:10240000808190910F018923B9F0FE01EE0FFF1F2B
:10241000EF59FE4F81A982958F706091CE048F9DF8
:10242000600D11247D2D8C2D0E94D508462F282F5C
:10243000672FCE010E943A072196DCCFC0910E0192
:102440008BE0C89FC02D11240BE00C0FE02E06334B
:1024500010F0A5E3EA2ED090CF04C090D0042091D4
:10246000D104F0E4FF2E3F2D329F312D1124F32EA5
:10247000D0E0CE1508F051CFFE01E550FE4F80812F
:1024800090910F018923D9F0FE01EE0FFF1FEF5944
:10249000FE4F60A9F69EB0011124E5E075956795A1
:1024A000EA95E1F78091CE04680F7D2D8C2D0E9476
:1024B000D508462F282F672FCE010E943A07219674
:1024C000D8CFC0910E018BE0C89FC02D11240BE026
:1024D0000C0FF02E063310F065E3F62EE090CE04DC
:1024E000D091CF04D090D0046091D10466956695C8
:1024F00066958091C9049091CA040E94B8080E9410
:102500000908805887FD8195880F282F3D2D239F2E
:10251000212D1124822F6E2D7D2F0E94D508E62EAD
:10252000D72EC82ED0E0CF1508F0F7CEFE01E5502B
:10253000FE4F808190910F01892331F02C2D4E2D7B
:102540006D2DCE010E943A072196EDCF8EE097E0E7
:102550000E94E10A07C084EE96E0FACF8BEE97E086
:102560000E94EE0BC82F8FC08CEC97E0F9CF81EB67
:1025700097E00E94810BF6CF85E997E0FACF82EED3
:1025800096E0E6CF89ED96E0E3CF80ED96E0E0CFF0
:1025900087EB96E0DDCF89EA96E0EBCF80E998E023
:1025A000DFCF84E897E0DCCF80E797E0E2CF8CE7ED
:1025B00096E00E942B0BD6CF8EE496E0FACF87E10F
:1025C00096E0F7CFC0910E018BE0C89FC02D11247B
:1025D0000BE00C0F80911001811120C06091D1049B
:1025E00020E1620F08F46FEF8091C9049091CA0452
:1025F0000E94B8086AE070E00E94A02E892B09F0C2
:102600008CCE0E944B08E5E38E9FC001112460919F
:102610000F01892F90E00E9469097FCE802F063339
:1026200008F085E3D0E0E82EF12CCE15DF050CF0A4
:1026300074CE60910F01CE010E9469092196F5CFF9
:10264000C0911001C11137C06091D10420E1620F27
:1026500008F46FEF8091C9049091CA040E94B808F1
:1026600065E070E00E94A02E892B09F033CE0E9415
:102670004B08F5E38F9FC001112460910F01892F52
:1026800090E00E94440C80910E018F5F80930E01B8
:10269000C1110CC082E080930C0180911001811166
:1026A00005C0111103C083E080930C01CDB7DEB7E4
:1026B000E0E10C94D22EC0910E018BE0C89FC02D9A
:1026C00011240BE00C0F802F063308F085E3D0E0D7
:1026D000E82EF12CCE15DF050CF01FCE60910F0116
:1026E000CE010E94440C2196F5CFC0910E018BE0E3
:1026F000C89FC02D11240BE00C0FF02E063310F0F4
:1027000055E3F52ED090CF04E090D004D091CE04C4
:102710006091D1046695669566958091C904909103
:10272000CA040E94B8080E940908805887FD819554
:10273000880F682F2CE0629F612D11246D0F7D2D75
:102740008E2D0E94D508E62ED72EC82ED0E0CF15AC
:1027500008F0E3CDFE01E550FE4F808190910F011E
:10276000892331F02C2D4E2D6D2DCE010E943A077C
:102770002196EDCF88E298E0EBCE86E096E0E8CEB9
:1027800090910E010BE0909F000D11244091C9041F
:102790005091CA046091CB047091CC048091B10334
:1027A0009091B203A091B303B091B403841795073D
:1027B000A607B70708F0B1CD0E944B0835E3839F09
:1027C000E0011124CD2FDD27FE01E550FE4F808171
:1027D00090910F01892309F4A0CD0E944B0820E0BD
:1027E00040E060E081FD13C00E944B08F82E0E947B
:1027F0004B08E0E88E9FC00111247FE7790F6F2D11
:102800008091D0040E94D508462F282F672FCE0133
:102810000E943A072091D10430E1230F08F42FEFF2
:1028200060E1822F90E00E94B808BC0184EF91E043
:102830000E94A02E8091C9049091CA04A091CB045B
:10284000B091CC04860F971FA11DB11D8093B103D9
:102850009093B203A093B303B093B4035ECD4091C1
:10286000540450915504609156047091570480911E
:10287000C9049091CA04A091CB04B091CC048417F0
:102880009507A607B70708F425CD8091100181119F
:1028900021C0C0910E018BE0C89FC02D11240BE018
:1028A0000C0FD02E063310F035E3D32EEC2EF12C86
:1028B000F3E0CF9FE0011124CB54DC4FED1408F47A
:1028C00042C0E5EBF3E081E594E0053308F054C045
:1028D000C1E0D9CE40E060E080E00E94370725EB00
:1028E000E22E23E0F22ED0E0C0E00E944B0881FFF0
:1028F0000CC0F7011082118212822196F3E0EF0ED4
:10290000F11CC533D10589F7C4CF0E944B08082FAD
:102910000E944B08F0E88F9FC00111247FE7790FD8
:102920006E01CC0CDD1CCC0EDD1E96012B543C4FF1
:102930006901602F8091D0040E94D508F601608360
:1029400071838283DACFF701E550FE4F8081909149
:102950000F01892331F02A8148816981C7010E94D2
:102960003A0723962FEFE21AF20AA8CF2381348187
:1029700045812193319341938E179F07B9F70E94A8
:102980004B0881FF1FC01092510410925204109204
:1029900053040E94C208C090C904D090CA04E090B9
:1029A000CB04F090CC04DC01CB018C0D9D1DAE1D41
:1029B000BF1D8093540490935504A0935604B09384
:1029C000570488CC0E944B08C82F0E944B0830E85F
:1029D000839FC00111247FE7790F6C2F8091D00471
:1029E0000E94D5086093510470935204809353045D
:1029F000D0CF80911001882329F040E060E080E092
:102A00000E94370780910E010BE0809F000D11247A
:102A10004091C9045091CA046091CB047091CC04D8
:102A20008091700490917104A0917204B09173042C
:102A300084179507A607B70708F06FCC6091CE04FE
:102A40007091CF048091D0040E94D508762E672E15
:102A5000582E88E5E82E84E0F82EC1E6D1E05E012C
:102A60004E016701412CF40181914F0190E0F60184
:102A70002081222309F455C0252D472D662D0E9463
:102A80003A07F5018385252D472D662D90E00E949C
:102A90003A07F601818181936F014394F1E0AF1A07
:102AA000B10825E04212DFCF8D8190E0F70125814A
:102AB000222309F441C0252D472D662D0E943A0797
:102AC0008E81252D472D662D90E00E943A070E94A9
:102AD0004B08837091E009F090E0F7019583F6E0F0
:102AE000EF0EF11C2C9621E0C139D20709F0B7CFC7
:102AF0000E94C208C090C904D090CA04E090CB04E0
:102B0000F090CC04DC01CB018C0D9D1DAE1DBF1DD2
:102B10008093700490937104A0937204B093730433
:102B2000FCCB20E040E060E00E943A07F50183859D
:102B300020E040E060E0AACF20E040E060E00E94BA
:102B40003A078E8120E040E060E0BECF8FEF95E055
:102B50000E946E0A07CD89EF95E0FACF8091D304E9
:102B600021E0382F321B08F430E0832F60EE75E04F
:102B70000E94A409F7CC60EE75E080E0F9CF809167
:102B8000D30421E0382F321B08F430E0832F65EAAC
:102B900075E0EECF65EA75E0F0CF8091D30421E0D7
:102BA000382F321B08F430E0832F63E775E0E0CF65
:102BB00063E775E0E2CF8091D30421E0382F321B28
:102BC00008F430E0832F6BE575E0D2CF6BE575E05C
:102BD000D4CF8091D30421E0382F321B08F430E0A9
:102BE000832F65E475E0C4CF65E475E0C6CF8F92AE
:102BF0009F92AF92BF92CF92DF92EF92FF921F937C
:102C0000CF93DF9380919D0490919E04A0919F04A7
:102C1000B091A0042FB7F8948090AE049090AF04C8
:102C2000A090B004B090B1042FBF75016401C81A20
:102C3000D90AEA0AFB0A2FB7F8944091AE045091E2
:102C4000AF046091B0047091B1042FBF40939D0414
:102C500050939E0460939F047093A0041091740499
:102C6000E4E7F4E0C12FD0E00197AF4FBF4F8819E0
:102C70009909AA09BB091D1327C0C0937404809148
:102C8000A504C0E0811108C08091CD04C82FC37095
:102C900019F0C82FC695C69580910C018130F1F1CD
:102CA000882329F1823009F48CC3833009F494C35A
:102CB000DF91CF911F91FF90EF90DF90CF90BF9069
:102CC000AF909F908F900895218D328D4901B12C46
:102CD000A12C88159905AA05BB0520F4C150DF5F1A
:102CE0003296C9CF2C0D3D1D328F218FF8CF109217
:102CF0000E014093C9045093CA046093CB047093AF
:102D0000CC0489E2E4E7F4E0A3EDB4E001900D9295
:102D10008A95E1F781E080930C01CACF8C2F0E9445
:102D20003611CC2329F22091A3043091A404809180
:102D3000A1049091A204282B392B832F9927009767
:102D400069F19C0188E0A90174E0569547957A9550
:102D5000E1F74115510511F08C5F9A01A9015695D3
:102D60004795569547954115510511F08E5F9A018B
:102D700036952795232B09F08F5F813009F439C1EF
:102D8000882309F47EC2823059F0833009F4E3C00D
:102D900020E040E06FEF81E090E078C280E0D3CFA8
:102DA0002FEF40E060E081E090E00E943A0720E0F1
:102DB00040E06FEF82E090E00E943A0720E04FEFA2
:102DC00060E083E090E00E943A0720E04FEF6FEF71
:102DD00084E090E00E943A0720E04FEF60E087E057
:102DE00090E00E943A0720E040E06FEF88E090E03A
:102DF0000E943A0720E04FEF60E089E090E00E94F7
:102E00003A072FEF40E060E08CE090E00E943A0744
:102E100020E040E06FEF8DE090E00E943A0720E074
:102E200040E06FEF8EE090E00E943A0720E040E043
:102E30006FEF8FE090E00E943A072FEF40E060E0F4
:102E400080E190E00E943A072FEF40E06FEF81E1D0
:102E500090E00E943A0720E04FEF6FEF82E190E0B0
:102E60000E943A0720E040E06FEF83E190E00E948B
:102E70003A0720E040E06FEF84E190E00E943A07DB
:102E800020E040E06FEF85E190E00E943A072FEFED
:102E90004FEF60E088E190E00E943A072FEF40E0BA
:102EA00060E08AE190E00E943A0720E04FEF60E0A6
:102EB0008BE190E00E943A0720E04FEF6FEF8CE14A
:102EC00090E00E943A072FEF40E06FEF8DE190E035
:102ED0000E943A0720E04FEF6FEF8EE190E00E94F2
:102EE0003A072FEF40E060E08FE190E00E943A0760
:102EF0002FEF40E060E080E290E00E943A072FEF81
:102F000040E06FEF81E290E00E943A072FEF40E04F
:102F10006FEF82E290E00E943A0720E040E06FEF1E
:102F20008AE290E00E943A0720E040E06FEF8BE2F7
:102F300090E00E943A0720E04FEF60E08CE290E0E2
:102F40000E943A0720E04FEF60E08DE290E00E949F
:102F50003A0720E091C12FEF4FEF60E090E080E072
:102F60000E943A072FEF4FEF60E081E090E00E946F
:102F70003A072FEF4FEF60E082E090E00E943A07BF
:102F800020E040E06FEF83E090E00E943A0720E00D
:102F90004FEF6FEF84E090E00E943A0720E040E0BE
:102FA0006FEF85E090E00E943A0720E040E06FEF8D
:102FB00086E090E00E943A0720E04FEF60E087E073
:102FC00090E00E943A0720E04FEF60E088E090E058
:102FD0000E943A072FEF40E060E089E090E00E9415
:102FE0003A072FEF40E060E08AE090E00E943A0765
:102FF0005FCE2FEF40E060E090E080E00E943A0773
:103000002FEF40E060E081E090E00E943A072FEF70
:1030100040E060E082E090E00E943A072FEF40E05D
:1030200060E083E090E00E943A072FEF40E060E02C
:1030300084E090E00E943A072FEF40E060E085E0F6
:1030400090E00E943A072FEF40E060E086E090E0D9
:103050000E943A072FEF40E060E087E090E00E9496
:103060003A0720E04FEF6FEF88E090E00E943A07C8
:1030700020E040E06FEF89E090E00E943A0720E016
:1030800040E06FEF8AE090E00E943A072FEF40E0C7
:1030900060E08BE090E00E943A0720E040E06FEFB4
:1030A0008CE090E00E943A0720E04FEF6FEF8DE058
:1030B00090E00E943A0720E04FEF6FEF8EE090E043
:1030C0000E943A0720E04FEF6FEF8FE090E00E9400
:1030D0003A0720E04FEF6FEF80E190E00E943A075F
:1030E00020E04FEF6FEF81E190E00E943A0720E08F
:1030F0004FEF6FEF82E190E00E943A072FEF40E040
:103100006FEF83E190E00E943A0720E04FEF60E02C
:1031100084E190E00E943A0720E04FEF60E085E113
:1031200090E00E943A0720E04FEF60E086E190E0F7
:103130000E943A0720E04FEF6FEF87E190E00E9496
:103140003A0720E040E06FEF88E190E00E943A0704
:1031500020E04FEF6FEF89E190E00E943A0720E016
:103160004FEF6FEF8AE190E00E943A0720E04FEFC7
:103170006FEF8BE190E00E943A0720E04FEF6FEF96
:103180008CE190E00E943A0720E04FEF6FEF8DE175
:1031900090E00E943A0720E04FEF6FEF8EE190E061
:1031A0000E943A072FEF40E060E08FE190E00E943C
:1031B0003A0720E04FEF60E080E290E00E943A079B
:1031C00020E04FEF60E081E290E00E943A0720E0CB
:1031D0004FEF60E082E290E00E943A072FEF40E07C
:1031E0006FEF83E290E00E943A0720E040E06FEF4B
:1031F00084E290E00E943A0720E040E06FEF85E231
:1032000090E00E943A0720E040E06FEF86E290E015
:103210000E943A0720E040E06FEF87E290E00E94D2
:103220003A0720E040E06FEF88E290E00E943A0722
:1032300020E040E06FEF89E290E00E943A0720E052
:103240004FEF60E08AE290E00E943A0720E04FEF03
:1032500060E08BE290E00E943A0720E04FEF60E0F0
:103260008CE290E00E943A0720E04FEF60E08DE2B0
:1032700090E00E943A072FEF40E06FEF8EE290E07F
:10328000B5CE20E040E06FEF90E080E00E943A078A
:1032900020E040E06FEF83E090E00E943A0720E0FA
:1032A00040E06FEF84E090E00E943A0720E040E0C9
:1032B0006FEF87E090E00E943A0720E040E06FEF78
:1032C00088E090E00E943A0720E040E06FEF8BE05A
:1032D00090E00E943A0720E040E06FEF8DE090E040
:1032E0000E943A0720E040E06FEF8EE090E00E94FD
:1032F0003A0720E040E06FEF81E190E00E943A075A
:1033000020E040E06FEF82E190E00E943A0720E089
:1033100040E06FEF85E190E00E943A0720E040E056
:103320006FEF86E190E00E943A0720E040E06FEF07
:1033300089E190E00E943A0720E040E06FEF8AE1E7
:1033400090E00E943A0720E040E06FEF8DE190E0CE
:103350000E943A0720E040E06FEF8EE190E00E948B
:103360003A0720E040E06FEF81E290E00E943A07E8
:1033700020E040E06FEF82E290E00E943A0720E018
:1033800040E06FEF84E290E00E943A0720E040E0E6
:103390006FEF87E290E00E943A0720E040E06FEF95
:1033A00088E290E00E943A0720E040E06FEF8AE276
:1033B00090E00E943A0720E040E06FEF8BE290E05F
:1033C000C6CDC0930B018091CD04837080930A0118
:1033D0000E94BF1083E09FCC8091A604882351F007
:1033E00046E050E06CE170E08DEC94E00E94832FA9
:1033F0001092A6044091C9045091CA046091CB0474
:103400007091CC042FB7F8948091AE049091AF04E2
:10341000A091B004B091B1042FBF841B950BA60BF3
:10342000B70B4097A105B10508F442CC10920C01EE
:103430003FCC8091810390918003892B809332024D
:1034400090918203992391F0892B8093320220E09E
:1034500084E392E0FC013191CF0131112F5FF2E062
:103460008A339F07B9F721110E94B20E48E050E05D
:1034700068E773E082E392E00E944F2F892BA9F066
:1034800088E0E2E3F2E0A8E7B3E001900D928A95CC
:10349000E1F7E091A904F091AA04309731F002809D
:1034A000F381E02D82E392E009950895882321F0CD
:1034B0000E94B80E0E94191A0895882339F090913D
:1034C0008103982B909381030E94191A089590917B
:1034D0008F0392FB222720F9281779F080FB92F9BD
:1034E00090938F0360918E0370918F0384E090E03E
:1034F0000E94B12F82E00E94D00F089567EE7EEF08
:1035000090E080E00E94B12F60E082E090E00E94B5
:10351000932F60E083E090E00E94932F1092A2042A
:103520001092A10460E074E184E090E00E94B12F69
:1035300060E086E090E00E94932F6FEF87E090E0DC
:103540000E94932F40E050E0BA0188E090E00E9492
:10355000A52F60E08DE090E00E94932F40E050E0C6
:10356000BA0188E190E00E94A52F60E087E190E039
:103570000E94932F40E050E0BA018CE190E00E945D
:10358000A52F70E060E080E290E00E94B12F40E063
:1035900050E0BA0188E190E00E94A52F40E050E0A1
:1035A000BA018FE090E00E94A52F40E050E0BA0100
:1035B00083E190E00E94A52F0895A4E0B0E0E3EE3F
:1035C000FAE10C94BE2E0E94DF2D65EC8EEF0E9476
:1035D0002B1060E08DEF0E942B1010E060E0812F37
:1035E0000E942B101F5F1831C9F765EC8EEF0E9407
:1035F0002B1061E08DEF0E942B1010E060E0812F16
:103600000E942B101F5F103CC9F765EC8EEF0E94E3
:103610002B1063E08DEF0E942B1060E08FE00E9482
:103620002B1060E080E10E942B106FEF81E00E9480
:103630002B1061E080E00E942B108FE39CE9019742
:10364000F1F700C000000CEA10E098E1C92EEE246A
:10365000E394F12CDD24D39444E050E0B801CE0192
:1036600001960E94462F6A815B814C81898183701B
:1036700090E0E62FE695E695E695C89E9001C99EF6
:10368000300D1124265C3D4FE20FF32FF11D6770C2
:10369000D70101C0AA0F6A95EAF760816A2B60839F
:1036A000E52FE695E695E695E20FF32FF11D5770AD
:1036B000B70101C0660F5A95EAF75081562B508327
:1036C000E42FE695E695E695E20FF32FF11D47709E
:1036D000970102C0220F331F4A95E2F7A90120810A
:1036E000242B20838E5A9D4FFC01D0820C5F1F4FEC
:1036F000F1E008361F0709F0AFCF65EC8EEF0E94AE
:103700002B1060E08DEF0E942B108AE3E82E82E000
:10371000F82E10E0F70161917F01812F0E942B109C
:103720001F5F1831B9F7109252022496E8E00C940A
:10373000DA2EA4E0B0E0EFE9FBE10C94C12EF62E06
:10374000042F122F8533910550F5880F991F880F8C
:10375000991FBC0164557F4F44E050E0CE010196B3
:103760000E94462F89818370AA81E82FF0E020EC27
:10377000829FC00111248D5A9D4FA80FB92FB11DF2
:10378000FC92AB81A80FB92FB11D0C932C81820F35
:10379000911DDC011C93ED5EFC4F81E0808324963B
:1037A000E5E00C94DD2EFF920F931F93CF93DF93F0
:1037B000F82E062F142FD0E0C0E0212F402F6F2DC0
:1037C000CE010E94991B2196C533D105B1F7E4E1E2
:1037D000F3E0F18200831283339683E0E632F80748
:1037E000C1F7CDB7DEB7E5E00C94DD2E8F32910541
:1037F0001CF40E94991B08958F97FC01EE0FFF1F88
:10380000E80FF91FEC5EFC4F61834083228308952B
:103810001F920F920FB60F9211242F933F934F9345
:103820005F936F937F938F939F93AF93BF93EF9328
:10383000FF938091E10082FF09C08091E20082FF46
:1038400005C08091E1008B7F8093E1008091DA00D8
:1038500080FF24C08091D80080FF20C08091DA00D2
:103860008E7F8093DA008091D90080FF9DC080E137
:1038700089BD82E189BD09B400FEFDCF81E080935E
:10388000BF048091B204811109C00E94DE020E942F
:103890007F038091E20084608093E2008091E100E8
:1038A00080FF17C08091E20080FF13C08091E2008A
:1038B0008E7F8093E2008091E20080618093E2003D
:1038C0008091D80080628093D80019BC85E08093F5
:1038D000BF048091E10084FF2BC08091E20084FF4F
:1038E00027C080E189BD82E189BD89B5982F91709B
:1038F00080FFFBCF8091D8008F7D8093D80080918E
:10390000E1008F7E8093E1008091E2008F7E8093C2
:10391000E2008091E20081608093E2008091C00427
:10392000882309F447C084E08093BF048091BF04DA
:103930008091E10083FF27C08091E20083FF23C0D4
:103940008091E100877F8093E10082E08093BF0453
:103950001092C0048091E1008E7F8093E1008091FD
:10396000E2008E7F8093E2008091E200806180938C
:10397000E20042E060E080E00E944D038091F000B0
:1039800088608093F000FF91EF91BF91AF919F917C
:103990008F917F916F915F914F913F912F910F90F8
:1039A0000FBE0F901F90189519BC1092BF04109273
:1039B000B20474CF8091E30087FD93E09093BF043D
:1039C000B5CF78941F921FB61F9211248F939F93A7
:1039D000AF93BF938091AE049091AF04A091B004D7
:1039E000B091B1040196A11DB11D8093AE049093D6
:1039F000AF04A093B004B093B104BF91AF919F9175
:103A00008F911F901FBE1F9018959C014FB7F8947F
:103A10008091AE049091AF04A091B004B091B10434
:103A20004FBF821B930B08952FB7F8948091AE047B
:103A30009091AF04A091B004B091B1042FBF08954C
:103A40000E94141D9C019091AD038091AE03982BB0
:103A500021F03093AA032093A9039091AF038091A2
:103A6000B003982B21F03093A8032093A703E09193
:103A7000A904F091AA04309749F082E08093AB0347
:103A80000480F581E02D8BEA93E009950895CF93AA
:103A900010928103C6E0E4E3F2E0DF018C2F1D9277
:103AA0008A95E9F790E080E00E94600490E080E071
:103AB0000E943B04109280030E94191AEBEAF3E083
:103AC000DF011D92CA95E9F71092A4031092A50395
:103AD0001092A6030E94201DCF910895AAE2B0E0A3
:103AE000E4E7FDE10C94C32E81EC94E02091F10019
:103AF000FC012193CF01F4E0893C9F07B9F7809145
:103B0000C204833009F470C0B8F4813009F447C0AE
:103B1000823009F4B1C08091E80083FF7EC28091B9
:103B2000C1049091C2049A3008F077C2E92FF0E006
:103B3000EC51F04D0C941E2F8A3009F48CC08B3060
:103B400009F46FC0893039F78091C104813219F7C7
:103B50008091C5049091C6040297E8F68091E80030
:103B6000877F8093E8008091E80082FF38C09091C1
:103B7000F3008091F200029731F48091F1008130DE
:103B800011F0863021F48091F1008093B40480918B
:103B9000E8008B778093E8000E942E03BCCF8091D1
:103BA000C104813A09F0B7CF8091E800877F809304
:103BB000E8008091C5049091C604892B61F468E007
:103BC00085EB94E070E00E94DA038091E8008B7747
:103BD0008093E800A0CF60E090E080E0F3CF809198
:103BE000BF048111C0CF97CF8091C104813A09F001
:103BF00092CF8091C5049091C604892B09F08BCF98
:103C00008091E800877F8093E8008091E80080FF42
:103C1000FCCF80910D018093F1008091E8008E77B8
:103C2000B9CF8091C104813209F075CF8091C5046C
:103C30009091C604892B09F06ECF8091E800877FB0
:103C40008093E8000E942E038091C30480930D01AD
:103C50000E94471D60CF8091C104813209F05BCF83
:103C60008091E800877F8093E8000E942E03809176
:103C7000C4048093B3044FCF8091C104813A09F00A
:103C80004ACF8091E800877F8093E8008091E80028
:103C900080FFFCCF8091B304BECF803899F082388A
:103CA00009F0BBC18091C5048F70873008F0B5C1A1
:103CB0008093E9008091EB0085FB882780F91092C2
:103CC000E90006C08091BD049091BE04911182600C
:103CD0009091E800977F9093E8008093F100109214
:103CE000F1008091E8008E7794C1882309F482C1A5
:103CF000823009F092C18091C304811185C1809105
:103D0000C5048F702FEF280F263008F086C18093EE
:103D1000E9002091EB0020FF77C1933031F48091CE
:103D2000EB0080628093EB006FC19091EB0090619B
:103D30009093EB0021E030E001C0220F8A95EAF772
:103D40002093EA001092EA008091EB008860EACFAD
:103D5000811163C11091C3041F778091E3008078C3
:103D6000812B8093E3008091E800877F8093E800B7
:103D70000E942E038091E80080FFFCCF8091E30039
:103D800080688093E30082E0111183E08093BF0498
:103D900044C18058823008F040C18091C3049091A2
:103DA000C4048C3D23E09207A1F583E08A838AE274
:103DB00089834FB7F894DE01139620E03EE051E28C
:103DC000E32FF0E050935700E49120FF03C0E29509
:103DD000EF703F5FEF708E2F90E0EA30C0F0C79633
:103DE0008D939D932F5F243159F74FBF8091E80049
:103DF000877F8093E8006AE270E0CE0101960E941E
:103E0000DA038091E8008B778093E80006C1C096C2
:103E1000E7CF4091C5045091C604292F33272330A2
:103E2000310509F444C078F52130310509F46FC03B
:103E30008BE390E0EBEBF4E02230310509F0EDC0CC
:103E40002091E800277F2093E8002091C70430915B
:103E5000C8048217930708F49C0140E0211531053E
:103E600009F064C0411162C08091E80082FDC9CFB1
:103E70008091BF04882329F2853019F28091E800EF
:103E800083FFF2CFBECF21323105A9F122323105B5
:103E900009F0C3C04115510509F443C04130510533
:103EA00009F0BBC08BE790E0E0E0F4E0C9CF9927D0
:103EB00081309105C1F0009759F0029709F0ADC02B
:103EC000E8E0F5E0E4918E2F90E0E8E0F5E007C04F
:103ED000E4E4F5E0E4918E2F90E0E4E4F5E000976F
:103EE00009F49BC0ADCFECE2F5E0E4918E2F90E0B9
:103EF000ECE2F5E0F4CF4115510571F04130510588
:103F000009F08BC089E090E0E6EEF4E099CF82E121
:103F100090E0E6EFF4E094CF89E090E0EDECF4E09F
:103F20008FCF80E490E0EBE7F4E08ACF8091BF048C
:103F3000882309F466CF853009F463CF8091E800C7
:103F400083FD5FCF8091E80082FD8ECF8091E800F5
:103F500080FF84CF9091F3008091F200211531050C
:103F600019F08830910550F041E0089709F040E0E1
:103F70008091E8008E778093E80070CF4491409361
:103F8000F1003196215031090196E8CF803809F0CF
:103F900044C08091E800877F8093E8008091C0044E
:103FA0008093F1009ECE811138C01091C30412306D
:103FB000A0F58091E800877F8093E8001093C0040B
:103FC0000E942E03112311F084E005C08091E300CC
:103FD00087FDFACF81E08093BF0442E061EC81E08D
:103FE0000E944D0342E261EC82E00E944D03809109
:103FF000BF0413C08091C304813079F481E0933011
:1040000009F080E08093BE041092E9008091E800FE
:10401000877F8093E8000E942E038091E80083FF51
:104020000AC08091E800877F8093E8008091EB00D0
:1040300080628093EB00AA96E3E00C94DF2E1F923F
:104040000F920FB60F9211242F933F934F935F93CC
:104050006F937F938F939F93AF93BF93CF93DF9390
:10406000EF93FF93D091E900DF708091EC00C82FAF
:10407000C17080FDC0E81092E9008091F000877F58
:104080008093F00078940E946E1D1092E900809158
:10409000F00088608093F000CD2BCF70C093E900D2
:1040A000FF91EF91DF91CF91BF91AF919F918F9150
:1040B0007F916F915F914F913F912F910F900FBE24
:1040C0000F901F9018950E94471D2FEF84E39CE0EE
:1040D000215080409040E1F700C0000088E19CE062
:1040E0000FB6F894A895809360000FBE909360007F
:1040F000FFCF662309F45DC08D3C41F40E948A0C19
:1041000081958093AE030E94201D08958E3C19F482
:104110000E948A0CF6CF8F3C31F40E948A0C819564
:104120008093AD03F0CF803D19F40E948A0CF8CF44
:10413000893D29F40E94680C8093AF03E4CF8A3D47
:1041400021F40E94680C8195F7CF8B3D31F40E94D9
:10415000680C81958093B003D6CF8C3D19F40E94F2
:10416000680CF8CF9FE2980F983070F4815D990B3E
:1041700021E030E001C0220F8A95EAF78091AC037C
:10418000822B8093AC03BFCF8D3D31F48091A60389
:1041900081608093A603B7CF8E3D21F48091A60362
:1041A0008260F7CF8F3D09F0AECF8091A603846087
:1041B000F0CF4091AD038D3C59F48091AE0387FF61
:1041C0000DC01092AE0341110BC01092A40308C0A1
:1041D0008E3C81F48091AE0318169CF3442381F049
:1041E0008091AF039091B003892B09F08CCF10928E
:1041F000A50389CF8F3C49F447FFF0CF1092AD0360
:104200008091AE038111ECCFE0CF803D19F41416FC
:10421000ACF3E4CF9091AF03893D29F41916F4F67D
:104220001092AF03DBCF8A3D19F497FFD7CFF8CFB9
:104230009091B0038B3D29F497FFD0CF1092B0033B
:10424000CDCF8C3D19F41916CCF3C8CF9FE2980F4F
:10425000983090F4815D990B21E030E0B90102C003
:10426000660F771F8A95E2F7CB0180959091AC039A
:1042700089238093AC03B2CF8D3D31F48091A603A6
:104280008E7F8093A603AACF8E3D21F48091A60352
:104290008D7FF7CF8F3D09F0A1CF8091A6038B7F53
:1042A000F0CF882309F456C0823879F40E9485043F
:1042B00081FF50C089E30E94CC0E0E94191A89E345
:1042C0000E94BF0E0E94191A0895833859F40E9463
:1042D000850480FF3FC083E50E94CC0E0E94191A1E
:1042E00083E5EECF843859F40E94850482FF32C002
:1042F00087E40E94CC0E0E94191A87E4E1CF9CEF5C
:10430000980F913AE8F290E2980F983050F4877045
:1043100091E001C0990F8A95EAF7892F0E94B80EA3
:10432000D1CF9BE5980F933028F490E080E00E9475
:104330006004089598E5980F993128F490E080E0A2
:104340000E943B04089593E3980F933118F460E0C2
:104350000E9479200895CF93C82F8823C9F082380E
:10436000C9F40E94850481FD13C089E30E94CC0E2C
:104370000E94191A2FEF87EE93E021508040904061
:10438000E1F700C0000089E30E94BF0E0E94191AE5
:10439000CF9108958338A1F40E94850480FDF8CF61
:1043A00083E50E94CC0E0E94191A2FEF81EE94E053
:1043B000215080409040E1F700C0000083E5E4CF49
:1043C0008438A1F40E94850482FDE2CF87E40E9434
:1043D000CC0E0E94191A2FEF81EE94E021508040FC
:1043E0009040E1F700C0000087E4CECF8CEF8C0F47
:1043F000813A68F4E4E3F2E08191C817E9F122E040
:10440000EA33F207C9F78C2F0E94CC0EBFCF80E2AF
:104410008C0F883068F4C77021E030E001C0220FB3
:10442000CA95EAF780918103822B80938103AECFF6
:10443000EBE5EC0FE33040F4F0E0EC5EFE4F808102
:1044400090E00E946004A4CFE8E5EC0FE93150F45D
:10445000F0E0EE0FFF1FE95EFE4F808191810E9428
:104460003B0496CF83E38C0F833108F091CF61E05A
:104470008C2F0E9479208CCF8C2F0E94BF0E0E941F
:10448000191AC1CF0F931F93CF93DF93C62FD42F49
:10449000022FFC0182818823A9F06093FE040E9410
:1044A000141D9093FD048093FC04C77081E001C04B
:1044B000880FCA95EAF70E945D1ADF91CF911F918C
:1044C0000F9108958091FE04681335C08091FC041B
:1044D0009091FD040E94051D883C910560F510E255
:1044E0001D0FCD17B9F080E28C0F883040F4C770F3
:1044F00081E001C0880FCA95EAF70E94561A183069
:1045000048F481E09D2F977001C0880F9A95EAF7D3
:104510000E945D1A802F0E94AB21802F0E945121A2
:10452000183058F6D77081E001C0880FDA95EAF7A5
:104530000E94561AC2CFC77081E001C0880FCA9589
:10454000EAF7F6CFA5E0B0E0E8EAF2E20C94BA2E82
:104550007C01FC0183819481892B31F080819181E0
:1045600089238F3F09F0F7C32596ECE00C94D62EF3
:104570000E940F0F182F682F89819A810E94830F44
:1045800069817A81812F0E94060D8C01FC01E8511E
:10459000FC47E730F10588F5E251F04D0C941E2FF1
:1045A00026E241EE61EEC7010E944222809177032C
:1045B0008770D1F2F70182818823B1F280918F0355
:1045C00082FFD2CF82E00E94D00FCECF27E245EE0D
:1045D00065EEE9CF26E241EE60EEE5CF27E245EE5B
:1045E00064EEE1CF26E241EE62EEDDCF27E245EE5A
:1045F00066EED9CF28E241E0EBCFF7018281882334
:1046000009F4CEC31092FE04C8019057839708F0B6
:10461000B3C384E090E00E947D2F90938F0380933A
:104620008E03F801E150F047E232F10520F4EB503F
:10463000F04D0C941E2F80918E03816080938E0329
:1046400095C080918F03886080938F038FC0809185
:104650008E038260F3CF80918E038460EFCF8091D0
:104660008E038860EBCF80918F038160EDCF8091C6
:104670008F038260E9CF80918E038061DFCF8091CC
:104680008E038062DBCF80918E038064D7CF0E943F
:10469000471D80918E038068D1CF80918E038C60FE
:1046A000CDCF80918F038360CFCF80918E038E7F9B
:1046B000C5CF80918F03877FC7CF80918E038D7F79
:1046C000BDCF80918E038B7FB9CF80918E03877F82
:1046D000B5CF80918F038E7FB7CF80918F038D7F71
:1046E000B3CF80918E038F7EA9CF80918E038F7D73
:1046F000A5CF80918E038F7BA1CF0E94471D809113
:104700008E038F779BCF80918E03837F97CF80918D
:104710008F038C7F99CF80918E0382FB992790F92C
:1047200021E0922790FB82F990FB83F987CF80915B
:104730008F03982F909591708E7F892B90FB81F934
:1047400083CF90918E03892F8F7B96FF806476CFE5
:104750000E94471D90918E03892F97FB87F98058FF
:104760006DCF61E08EE090E00E94932F60918E0308
:1047700070918F0384E090E00E94B12F0E94471D4A
:1047800015CF60E0EFCF90918E03892F8F7E94FF3D
:10479000806154CF90918E03892F8E7F90FF81602E
:1047A0004DCF90918F03892F877F93FF88604CCFE7
:1047B00085E3F1C285E3FDC28091CD0491E08927B4
:1047C0008093CD0410920C018091A60481608093A7
:1047D000A604ECCE4EE255E069E375E00E94920437
:1047E000E5CE49E355E06EE275E0F8CF4FEF54E0D7
:1047F0006AE075E0F3CF4AE055E06FEF74E0EECF8A
:1048000043EE54E061EF74E0E9CF41EF54E063EE32
:1048100074E0E4CF47EC54E065ED74E0DFCF45EDA4
:1048200054E067EC74E0DACF48E954E066EA74E0FB
:10483000D5CF46EA54E068E974E0D0CF61E081E08A
:104840000E941505B3CE61E085E0FACF61E08DE00E
:10485000F7CF61E082E1F4CF0E94471DFFEF24E330
:104860003CE0F15020403040E1F700C000000E94E1
:104870009B106FEF7FEF90E080E00E94B12F0E94CD
:10488000632080918F0382FB882780F991E089273C
:104890000E94671AF701828100811181882309F43F
:1048A00049C0C8010E940F0FD82E682FC8010E946E
:1048B000830FB8018D2D0E94060D0E94230D8C01DF
:1048C000882EF701A280958092943FE093228091F8
:1048D00077038770F1F0CA2CAA20E1F0812F807F46
:1048E000803451F080E2800F883098F0911004C03D
:1048F000812F807E803269F080918F0382FF09C012
:1049000082E00E94D00F809177038770CC24C394FB
:104910008111C12CB12EB2942FE0B222FBE0FB1525
:1049200008F474C0EB2DF0E0E95EFF4C0C941E2FF0
:1049300080E0AECFC8010E94500FD82EBACF212FF1
:104940002F70D22E107F19F0D29490EFD922AA2086
:10495000B9F0DD2069F080E2800F883010F081101E
:1049600009C080918103D82AD09281030E94191A2C
:10497000802F4AC080918003D82AD0928003F6CF3E
:10498000802F0E945121DD2009F440C0005E0830D4
:1049900010F0811004C08D2D0E94B80E06C0D09476
:1049A00080918003D822D09280030E94191A2EC0D1
:1049B000312F3F70D32E107F103219F0D29480EF38
:1049C000D822882089F081E0881609F47CC0AA20CA
:1049D00009F486C0992009F47CC0F701858180FF25
:1049E000C7CF8F70858375C020918F0322FD43C090
:1049F000AA20D9F1DD2039F080918103D82AD09204
:104A000081030E94191A80E00E94AB21EB2DE8502F
:104A1000FF0B349710F40E948504CC20A9F08091FC
:104A2000770380FD11C0F7011282859585958595E4
:104A30000E94EC0FC7010E94A22280917703859506
:104A4000859585950E94BE0F85E0F701DE011196E0
:104A500001900D928A95E1F709811A81C8010E949F
:104A6000500FB8010E94060D7FCD80E00E945121B9
:104A7000DD2061F290CFAA20A1F090918203892FCE
:104A80008D29911003C00E945D1AC0CFE1E09E12F3
:104A9000FACF22FFBBCF981709F4B8CF80938203D7
:104AA000B5CF911006C00E94B20E8D2D0E94561AED
:104AB000ADCFF1E09F1609F4A9CF8D2D0E94561AB3
:104AC0000E94B20EA3CFAA2031F025E0291508F4E8
:104AD0009DCF8D2DD8CF34E0391508F497CFE5CF91
:104AE000992019F3F9E38F122FC12FEF37EE83E0EE
:104AF000215030408040E1F700C0000025C1812FE7
:104B000086958695837061F0813009F07FCFC8016A
:104B10009370A11002C080E090E00E943B0476CF29
:104B2000C8019370A11002C080E090E00E94600470
:104B30006DCF6A2D802F0E94792068CF812F8370DE
:104B400009F03FC0A11062CF402F429546954770B3
:104B5000440F440F802F8F7090E0042E02C0880F06
:104B6000991F0A94E2F730E020E004FF09C02FE02B
:104B700030E002C0220F331F4A95E2F720953095AE
:104B8000169516951370123099F078F44091A1049F
:104B90005091A204113039F0822B932B842395235A
:104BA0000E94FC0F33CF842B952B822B932BF8CFB5
:104BB000822B932B2091A1043091A204822793276A
:104BC000EFCF8695AA2011F0812F8170882309F4F8
:104BD0001DCF402F429546954770440F440F802FBC
:104BE0008F7090E0042E02C0880F991F0A94E2F79C
:104BF00030E020E004FF09C02FE030E002C0220FC7
:104C0000331F4A95E2F72095309516951695137047
:104C1000123099F078F44091A3045091A40411301B
:104C200039F0822B932B842395230E94B90FEECE6B
:104C3000842B952B822B932BF8CF822B932B2091B7
:104C4000A3043091A40482279327EFCF1F70AA20DA
:104C500029F0812F0E94EC0F802F15CF802F0E940A
:104C6000561A812F0E94BE0FD1CE802F92EF891647
:104C700099F1981570F0E0EF8E16D1F0F1EF8F16E4
:104C800091F0AA2009F45BC0911072CE812F8F7130
:104C900027C023EF821639F134EF8312F2CF8091CF
:104CA0008F0382FD2EC0812F8F71AA20D9F218C0E8
:104CB000AA2069F084E0891508F4A8CE1F7181E06C
:104CC00090E002C0880F991F1A95E2F7B8CF95E0DF
:104CD000991508F49BCEF2CF812F8F71A110C2CF0E
:104CE0000E94EC0F93CE90E080E0AA2009F49DCFC3
:104CF0001F7181E090E002C0880F991F1A95E2F7BA
:104D000094CFAA2089F01F71812F0E94EC0F80910F
:104D10008F0382FF07C0E8E01E9FC001112483605B
:104D200080937703812FDCCF81E00E94D00FF1E0E8
:104D3000F91508F06BCE82E00E94D00F67CE992063
:104D400039F0893309F4D1CE802F0E9451215ECEF3
:104D5000812F8F7187CF85E0DE01119601900D9232
:104D60008A95E1F7F701228189819A81211100CC8E
:104D70000E94500F182F04CC0631FCE71F07E1F406
:104D8000809181038A7A91E009F490E09093260360
:104D900081110ECD89E20E94CC0E0E94191A06CC18
:104DA00006312CE7120741F580912603811102CDCF
:104DB00089E20E94BF0EF1CF03303CE7130709F4EC
:104DC00058CD50F401159CE7190709F445CD013081
:104DD0001C4709F454CD5ECD0B35FCE71F0709F4E1
:104DE000A7CD0C352CE7120709F44BCD0A351C472B
:104DF00009F050CD81E04CCD809181038272F801A1
:104E0000E052F847E531F10508F044CDED5DFF4C87
:104E10000C941E2F1F93CF93DF9380914403807FC8
:104E200009F04BC080914103882309F446C080916A
:104E30007603C091450340913F0350914003609138
:104E4000420370914303D42FD52316E0C817A9F16C
:104E500090E061157105A9F1DF3F99F1189FF0010C
:104E6000199FF00D1124DF01AA5BBC4F11962C9104
:104E70001197251326C02C91241323C012962C9130
:104E8000129721111EC013962D913C91261B370BB2
:104E9000283C3105B0F4809144038F708061809389
:104EA0004403E55BFC4F80818F70806180838FE3DA
:104EB00093E00E94A2220E94050FDF91CF911F91E3
:104EC000089501968770C2CFA1E1B0E0EAE6F7E26B
:104ED0000C94BA2E8C0185E0F801DE011D9601903C
:104EE0000D928A95E1F7F801E2808FE3882E83E046
:104EF000982E40914203509143034115510509F406
:104F000030C190913F0320914003892F82238F3F2E
:104F100009F427C1D080C180A380B480F090410300
:104F2000B501641B750BFF2009F4E7C080914403B1
:104F3000382F307F683C710508F0ABC0311178C064
:104F4000FE2C2C1114C09D1112C0E11010C08F70E6
:104F5000806180934403C4010E94A2228091440393
:104F6000F80185838F2D6196ECE00C94D62EA11468
:104F7000B104C9F18D2D8C218F3FA9F181E08E25DF
:104F800080FF05C04E2D6C2D8D2D0E94E50EA114C5
:104F9000B10459F18D2D8C218F3F39F181E08E259F
:104FA000F82FF170BF2E80FF39C04E2D6C2D8D2D46
:104FB0000E94E50EA82E811131C0DD86CE868D853A
:104FC0009E850E94430F292F22952F70243078F45C
:104FD0009F702230A8F09923B9F0F8019581907F55
:104FE00099F4FA2CBFCF80E0CBCF80E0D9CF2A5FF5
:104FF0002F70223068F0C8010E94A222AB2CF1CFA2
:10500000992311F0882369F3805E883050F3F3CF41
:10501000803F38F3815F833070F7E3CFEE2009F4EF
:10502000A1CF80914403816080934403F12C9ACFF7
:105030002C1105C09D1103C0EE2009F477C0C801F2
:105040000E940110882309F1EE20F9F080914403B9
:10505000803270F020913F033091400338872F83D6
:105060001986BB86AA868C87CE0107960E94A2224B
:1050700086E0F801AFE3B3E001900D928A95E1F785
:105080000E940A27FF24F3946DCFC8010E94A22238
:10509000F9CF31110AC08FE393E00E94A22286E08B
:1050A000F40111928A95E9F7C1CF2C110EC09D1120
:1050B0000CC0E1100AC08583C8010E94A22286E0CC
:1050C000F40111928A95E9F74DCFC8010E940110B1
:1050D0008823D9F2EE20C9F280914403803240F255
:1050E00020913F03309140033A8329831B82BD8284
:1050F000AC828E83CE010196B9CF683C7105F8F67B
:10510000FE2CEE2011F22C111EC09D111CC08091AE
:10511000440380FD0FC0982F907F61F08583903FFE
:1051200031F0982F907F905F8F70892B8583C80115
:105130000E94A22286E0F801AFE3B3E001900D9255
:105140008A95E1F70FCFC8010E940110811190CF1D
:1051500080914403816080934403C8010E94A2228D
:1051600001CFEE2009F491CFC8010E940110F82E62
:10517000882309F48ACF86E0F801AFE3B3E0019019
:105180000D928A95E1F780913F03909140030E9430
:10519000430F0E940A27E6CEA7E1B0E0E2EDF8E275
:1051A0000C94C32E4B8B5C8B6D8B7E8B8F8B611124
:1051B000109280031A8A198A85E0FE017396DE0137
:1051C0001D9601900D928A95E1F786E0FE013D96CD
:1051D000DE01179601900D928A95E1F7CE010796B0
:1051E0000E946427882359F016E0809176039091FD
:1051F0004503891343C06796E3E00C94DF2E86E0F5
:10520000FE013796DE01119601900D928A95E1F725
:105210008A859B85892B41F38F81988589238F3FD0
:1052200019F32091450330E0C90101968770992751
:10523000409176034817190671F40E94471D109299
:1052400045031092760386E0EFE3F3E0DF011D9261
:105250008A95E9F7C9CF96E0929FD001939FB00D50
:105260001124AA5BBC4FFE01319601900D929A95D4
:10527000E1F7809345030E94050FB6CF819FC001DF
:1052800011248A5B9C4F0E946427882309F4B3CFC2
:105290008091760390E0019687709927809376033A
:1052A000A4CFA8E0B0E0E7E5F9E20C94B82E8E01B7
:1052B0000F5F1F4F88E0D8011D928A95E9F729E416
:1052C000E22E21E0F22ECC24C394D12C88248394A6
:1052D000912C59E5A52E51E0B52EF70181917F0162
:1052E0008F3F09F449C0F894E82FE295EF70F0E0A1
:1052F00021A18F70A40102C0440F551F8A95E2F7C7
:10530000CA01922F982B91A392A18095892382A301
:10531000789400C095E5692E91E0792EF801A601F8
:1053200040955095D3016D913D01808191816F3FF2
:1053300009F463C0262F22952F7030E0D901909692
:105340002C9130E06F7002C0359527956A95E2F791
:1053500020FD53C08C299D29918380833296A61409
:10536000B70401F7F701319780818F3F11F00E9458
:10537000AC0CB0EABA95F1F7CC0CDD1CE5E5EE1605
:10538000E1E0FE0609F0A9CF48E050E0B80186E868
:1053900093E00E944F2F892B99F188E0F801A6E84D
:1053A000B3E001900D928A95E1F781E08093850347
:1053B0000E94141D90938403809383038091830340
:1053C000909184030E94051D0597F0F048E050E09D
:1053D00066E873E082E993E00E944F2F892BC9F0C1
:1053E00088E0E6E8F3E0A2E9B3E001900D928A9547
:1053F000E1F781E01092850308C084239523ACCFA8
:10540000809185038111DACF80E02896EEE00C943C
:10541000D42E80E0EFCF1F921FB61F9211248F93DE
:105420009F93AF93BF938091AD04811113C080917E
:10543000AE049091AF04A091B004B091B104419634
:10544000A11DB11D8093AE049093AF04A093B0044E
:10545000B093B104BF91AF919F918F911F901FBEE8
:105460001F901895CDB7DEB767970FB6F894DEBFDB
:105470000FBECDBF85B7806885BF85B7806885BF03
:1054800084B7877F84BF0FB6F894A8958091600099
:10549000886180936000109260000FBE80E890E009
:1054A0000FB6F89480936100909361000FBE8AEA72
:1054B0009CE090933102809330020E94DE020E94B1
:1054C0007F038091E20084608093E2007894809171
:1054D000BF048823A1F01091E9001F709091EC00A7
:1054E000892F817090FD80E8182B1092E90080913F
:1054F000E80083FD0E946E1D1F701093E90082E09A
:1055000084BD93E095BD9AEF97BD80936E0009E44A
:1055100011E085E5E82E81E0F82ED8018D918D010E
:105520008F3F11F00E94AC0CE016F106B1F787E94D
:105530000E94AC0C87EF0E94AC0C86EF0E94AC0C72
:1055400085EF0E94AC0C88E0E2E9F3E0DF01282F50
:105550001D922A95E9F7E6E8F3E0DF011D928A95AE
:10556000E9F790E080E00E947D2F873E9E4F11F08A
:105570000E947E1A82E090E00E94752F80939A0329
:1055800084E090E00E947D2F90938F0380938E03A0
:105590000E945129EFE3FCE93197F1F700C00000C8
:1055A0000E9451298091920380FF08C06FEF7FEF26
:1055B00090E080E00E94B12F0E949B1083E090E079
:1055C0000E94752F90E00E94FC0F0E94DD1A10923D
:1055D000D3048FEF9FEF9093ED048093EC049093AE
:1055E000EF048093EE049093F1048093F004909381
:1055F000F3048093F2049093F5048093F404909361
:10560000F7048093F6049093F9048093F804909340
:10561000FB048093FA041092740490938E04809398
:105620008D049093900480938F04909392048093C0
:1056300091049093940480939304909396048093A0
:105640009504909398048093970490939A04809380
:10565000990490939C0480939B0490E080E00E94C6
:105660007D2F873E9E4F21F00E947E1A0E941B11C3
:1056700081E08093A60446E050E06CE170E08DECA0
:1056800094E00E94652F1092A6048091CD048C7F37
:1056900011F40E941B1160E085E00E94150520E0D6
:1056A00048EC6FEF85ED90E00E94B40480E091E05B
:1056B0009093AA048093A904772473948091BF04E3
:1056C00003E0F02E00E112E1853009F41CC10E94D4
:1056D0005129ABE9B3E0BA8BA98BE2E9F3E0FD8B8A
:1056E000EC8BDF01EBE9F3E0219131918D919D91FC
:1056F00043E0E33AF40709F412C128173907A1F38C
:1057000011E6812E11E0912E612CAC89BD89ED90BE
:10571000FD90BD8BAC8BE989FA8981919191FA8BCF
:10572000E98B8E159F0509F48BC09C012E253F2522
:105730003F8B2E8B1401512CCC24C394D12C8E89F9
:105740009F898C219D21892B09F46CC087010C2134
:105750001D215C866D8681E00115110509F480E04C
:105760008E870E94141D8160782F988B8F874C85BF
:105770005D856E8588890E94CC28012B29F0D10196
:105780008C918F3F09F0D5C1412C042D10E0809100
:105790007404800F912F911D09976CF1E8E0AE2EF3
:1057A000B12CA01AB10AB8016B587B4FA50185E74F
:1057B00094E00E945C2FB80163587B4FA5018DE7F0
:1057C00094E00E945C2FA501440F551FB801660F9D
:1057D000771F63577B4F8DE894E00E945C2FB801E0
:1057E0006B577B4FA50185E894E00E945C2F88E011
:1057F0008419809374048091740490E0EB89AE2F37
:10580000B0E09D01220F331F2F563E4FAA0FBB1F42
:10581000BD016E567E4F41E0480F941508F48DC1CE
:10582000809374045394CC0CDD1CEFEF2E1A3E0AC7
:10583000FCE05F1284CFE989FA893297F182E08235
:1058400063942CE0820E911C34E063125ECF8FB71C
:10585000F8944091AE045091AF046091B0047091FF
:10586000B1048FBF7EC08091BF04843009F43AC078
:105870000E94F7158091A50481110DC00E94361178
:1058800010920B018091CD04837080930A010E94D5
:10589000BF10F0920C0121E02093A5041092AD04FA
:1058A00048E150E080E40FB6F894A895409360007A
:1058B0000FBE8093600083B7817F846083BF83B70E
:1058C000816083BF7894889583B78E7F83BF0FB63E
:1058D000F894A89580916000886180936000109290
:1058E00060000FBE8091BE04882369F00E94512998
:1058F000E2E9F3E081919191892B09F040C193E0B5
:10590000EA39F907B9F78091BF04853009F4ABCFC4
:105910000E94471D0E9485041092A504D8CE281726
:10592000390709F0EDCE0E94141D8C01809190037F
:105930009091910308171907A1F08FEF8F83888743
:1059400019860E94141D8160782F9B878A874F815A
:10595000588569858B850E94CC281093910300930C
:1059600090030E94F71586E0EBEAF3E0DE01119662
:1059700001900D928A95E1F71092AD031092AE035B
:105980001092AF031092B0038B819C81892B09F494
:105990004AC08091A9039091AA030E94051D9C0111
:1059A0009091A403992309F405C125313105D8F15B
:1059B0009F3F19F09F5F9093A4031B81112359F01F
:1059C0000E948A0C9FEF11160CF491E0899F802DA4
:1059D00011248093AD031C81112359F00E948A0C7D
:1059E0009FEF11160CF491E0899F802D1124809374
:1059F000AE033091AD033323B1F02091AE032223E7
:105A000091F045EB3403C0011124992309F4ABC094
:105A10009093AD0355EB250390011124332309F432
:105A2000A5C03093AE038D819E81892B09F44AC0B5
:105A30008091A7039091A8030E94051D9C0190915D
:105A4000A503992309F4B1C021353105D8F19F3F51
:105A500019F09F5F9093A5031D81112359F00E94B7
:105A6000680C9FEF11160CF491E0899F802D112492
:105A70008093AF031E81112359F00E94680C9FEFA1
:105A800011160CF491E0899F802D11248093B003AE
:105A90003091AF033323B1F02091B003222391F072
:105AA00045EB3403C0011124992309F462C090939B
:105AB000AF0355EB250390011124332309F45CC097
:105AC0003093B00346E050E0BE016F5F7F4F8BEA3A
:105AD00093E00E944F2F892B61F48091AD03909148
